:020000040800F2
:1000000000000220890B0008190200081D020008E8
:100010002102000825020008290200080000000053
:100020000000000000000000000000002D02000899
:100030003102000800000000350200083902000803
:10004000CD0B0008CD0B0008CD0B0008CD0B000830
:10005000CD0B0008CD0B0008CD0B0008CD0B000820
:10006000CD0B0008CD0B0008CD0B0008CD0B000810
:10007000CD0B0008CD0B0008CD0B0008CD0B000800
:10008000CD0B0008CD0B0008CD0B0008CD0B0008F0
:10009000CD0B0008CD0B0008CD0B0008CD0B0008E0
:1000A000CD0B0008CD0B0008CD0B0008CD0B0008D0
:1000B000CD0B0008CD0B0008CD0B0008CD0B0008C0
:1000C000CD0B0008CD0B0008CD0B0008CD0B0008B0
:1000D000CD0B0008CD0B0008CD0B0008CD0B0008A0
:1000E000CD0B0008CD0B0008CD0B0008CD0B000890
:1000F000CD0B0008CD0B0008CD0B0008CD0B000880
:10010000CD0B0008CD0B0008CD0B0008CD0B00086F
:10011000CD0B0008CD0B0008CD0B0008CD0B00085F
:10012000CD0B0008CD0B0008CD0B0008CD0B00084F
:10013000CD0B0008CD0B0008CD0B0008CD0B00083F
:10014000CD0B0008CD0B0008CD0B0008CD0B00082F
:10015000CD0B0008CD0B0008CD0B0008CD0B00081F
:10016000CD0B0008CD0B0008CD0B0008CD0B00080F
:10017000CD0B0008CD0B0008CD0B0008CD0B0008FF
:08018000CD0B0008CD0B0008B7
:1001880010B5054C237833B9044B13B10448AFF3C9
:1001980000800123237010BD5404002000000000DB
:1001A800800D000808B5034B1BB103490348AFF3A2
:1001B800008008BD0000000058040020800D0008E1
:1001C800034B1A6912B11A69013A1A61704700BFE4
:1001D8007004002030B50D4C83B00121202000F0C0
:1001E80089FA4FF4C06540F201320023694620467F
:1001F800ADF804208DF80630009500F027FC29465C
:10020800204600F099FC03B030BD00BF0014024046
:10021800704700BFFEE700BFFEE700BFFEE700BF74
:10022800FEE700BF704700BF704700BF704700BFC0
:10023800FFF7C6BF39483A4AD0F8883043F470030C
:10024800C0F888301368002143F0010313609160FF
:100258001368A0F1BC2023F0847323F48033F038B2
:1002680013605060136882B023F480231360D16058
:1002780000910191136843F48033136003E0009BFD
:10028800B3F5A04F09D0136803F400330193009B22
:1002980001330093019B002BF1D0214B1B6813F411
:1002A800003318BF01230193019B012B05D01B4B81
:1002B8004FF000629A6002B07047194B19491A6CE6
:1002C800194842F080521A640A6842F440420A60AF
:1002D8009A689A609A6842F400429A609A6842F46E
:1002E800A0529A6058601A6842F080721A601A68C0
:1002F8009201FCD50D4A40F205711160996821F010
:1003080003019960996841F00201A2F58062996041
:10031800936803F00C03082BFAD1C8E700ED00E05E
:10032800003802400070004019544007003C024069
:10033800164A936803F00C03042B0BD0082B0BD040
:10034800134B124A13499268C2F303128A5CD340D2
:100358000B617047104BF4E75368516813F4800F32
:1003680001F03F01536814BF0B4A094AB2FBF1F18F
:10037800064A5268C2F30142C3F38813013201FBF3
:1003880003F35200B3FBF2F3DBE700BF003802408F
:100398000024F4000000002040787D010F4B104835
:1003A8001A68002142F0010210B41A6099601A68B4
:1003B8000C4C22F0A85222F410221A600A4A5C60FF
:1003C800C3F88400C3F888201A685DF8044B22F447
:1003D80080221A60D960C3F88C1070470038024038
:1003E800003000201030002400300024024B00228E
:1003F8009A709870704700BF0038024082B000239E
:100408000949019300E04AB90A68019B0133019345
:10041800019BB3F5A04F02F40032F4D1024B1868E7
:10042800C0F3404002B0704700380240034A1368E6
:1004380023F0F80343EAC000106070470038024018
:10044800014B1860704700BF00004742084B00226C
:10045800012883F8702083F8702006D0042803D17F
:10046800052283F870207047704783F87000704742
:1004780000380240014BC3F8800E70470000474225
:1004880010B4019C40EA046008435B08044C40EA4D
:100498008210013B40EA034060605DF8044B7047FE
:1004A80000380240014B1866704700BF0000474201
:1004B800034B090741EA8011C3F88410704700BF55
:1004C80000380240014B9866704700BF0000474261
:1004D8001207044B42EA016242EA8012C3F88820FC
:1004E800704700BF00380240014B1867704700BFD3
:1004F80000004742014BD864704700BF00004742E4
:10050800034A936823F0EC630B43034393607047FB
:1005180000380240034A936823F078430B430343AF
:100528009360704700380240034A936823F003033E
:1005380018439060704700BF00380240024B98682B
:1005480000F00C00704700BF00380240034A93686F
:1005580023F0F00318439060704700BF0038024052
:10056800034A936823F4E05318439060704700BF30
:1005780000380240034A936823F4604343EAC0000A
:1005880090607047003802401F4A936803F00C03DC
:10059800042B10B41BD0082B1CD01C4B03601A4A28
:1005A8001B499468C4F303140C5DE34043609468EA
:1005B800C4F382240C5D23FA04F4846092685DF825
:1005C800044BC2F342328A5CD340C3607047114B7C
:1005D8000360E4E75368516813F4800F01F03F01AA
:1005E800536814BF0B4A094AB2FBF1F1064A526834
:1005F800C2F30142C3F38813013201FB03F3520033
:10060800B3FBF2F30360CAE7003802400024F400A9
:100618001400002040787D0100F44073B3F5407F5A
:1006280009D108498A6820F0704323F4407322F402
:10063800F81213438B60034B1A6FC0F30B0010437F
:100648001867704700380240014BC3F83C0E7047EA
:1006580000004742014BC3F8400E70470000474274
:10066800014BC3F85C01704700004742044AD2F8C6
:100678008C3023F440131843C2F88C00704700BF35
:1006880000380240044AD2F88C3023F4400318435F
:10069800C2F88C00704700BF00380240044AD2F804
:1006A8008C30013823F01F031843C2F88C007047C0
:1006B80000380240054AD2F88C30013823F4F85348
:1006C80043EA0023C2F88C30704700BF003802406C
:1006D800044AD2F88C3023F440331843C2F88C0013
:1006E800704700BF00380240014BC3F8E001704773
:1006F80000104742044A136B11B118431063704746
:1007080023EA00001063704700380240044A536B24
:1007180011B118435063704723EA000050637047D3
:1007280000380240044A936B11B118439063704734
:1007380023EA00009063704700380240044A136CB3
:1007480011B118431064704723EA00001064704721
:1007580000380240044A536C11B118435064704782
:1007680023EA00005064704700380240044A1369C5
:1007780011B118431061704723EA000010617047F7
:1007880000380240044A536911B118435061704758
:1007980023EA00005061704700380240044A936918
:1007A80011B118439061704723EA000090617047C7
:1007B80000380240044A136A11B1184310627047A6
:1007C80023EA00001062704700380240044A536A66
:1007D80011B118435062704723EA00005062704715
:1007E80000380240044A136D11B118431065704770
:1007F80023EA00001065704700380240044A536D30
:1008080011B118435065704723EA000050657047DE
:1008180000380240044A936D11B11843906570473F
:1008280023EA00009065704700380240044A136EBE
:1008380011B118431066704723EA0000106670472C
:1008480000380240044A536E11B11843506670478D
:1008580023EA00005066704700380240044A136FCC
:1008680001280CBF43F0080323F0080313677047FF
:1008780000380240044A537B11B118435073704743
:1008880023EA000050737047003802404309012BE7
:100898000BD0022B094B0CBF1B6F5B6F00F01F00C6
:1008A80023FA00F000F001007047044B1B6800F0C9
:1008B8001F0023FA00F000F00100704700380240E2
:1008C800024A536F43F08073536770470038024001
:1008D800034BDB68184214BF01200020704700BF9B
:1008E80000380240014B9873704700BF003802403F
:1008F80008B54B4B984228D04A4B98422FD04A4BC8
:10090800984236D0494B984215D0494B98423AD034
:10091800484B984241D0484B984248D0474B984260
:100928005BD0474B98424CD0464B98425FD0464BE1
:10093800984268D008BD01210820FFF717FFBDE8DD
:10094800084000210820FFF711BF01210846FFF7E2
:100958000DFFBDE8084000210120FFF707BF012176
:100968000220FFF703FFBDE8084000210220FFF73F
:10097800FDBE01210420FFF7F9FEBDE80840002173
:100988000420FFF7F3BE01211020FFF7EFFEBDE8BA
:10099800084000211020FFF7E9BE01212020FFF7C1
:1009A800E5FEBDE8084000212020FFF7DFBE012159
:1009B8004020FFF7DBFEBDE8084000214020FFF79C
:1009C800D5BE01214FF48070FFF7D0FEBDE8084086
:1009D80000214FF48070FFF7C9BE01218020FFF786
:1009E800C5FEBDE8084000218020FFF7BFBE0121F9
:1009F8004FF40070FFF7BAFEBDE8084000214FF43D
:100A08000070FFF7B3BE01214FF48060FFF7AEFE20
:100A1800BDE8084000214FF48060FFF7A7BE00BF83
:100A2800000002400004024000080240000C02409E
:100A3800001002400014024000180240001C02404E
:100A480000200240002402400028024000222DE934
:100A5800F04713460D684FF0010E032604E00133FA
:100A6800102B02F1020239D00EFA03FC3CEA05040D
:100A7800F5D1076806FA02F427EA040707600F7938
:100A8800D0F800A007FA02F9013F49EA0A09012F44
:100A9800A046C0F800906FEA040411D887683C406B
:100AA80084604C79876894403C438460446824EAB5
:100AB8000C0444608C7947689C40A4B23C43446071
:100AC800C46824EA0804C460CC79C7689440013338
:100AD8003C43102BC46002F10202C5D1BDE8F08787
:100AE8004FF6FF720023C0E90023704782B04FF42D
:100AF80080330193019B0B430193019BC361C16147
:100B0800019BC361C3690193C369019302B0704734
:100B18000369194214BF012000207047006980B2A0
:100B2800704700BF4369194214BF01200020704775
:100B3800406980B2704700BF8161704709048161D4
:100B4800704700BF02B9090481617047416170476D
:100B58004369594041617047CB0800EB830001F0BD
:100B68000701036A89004FF00F0C0CFA01FC23EA15
:100B78000C030362036A8A401A430262704700BF8B
:100B8800002103E00A4B5B584350043109480A4BE3
:100B980042189A42F6D3094A02E0002342F8043B7D
:100BA800074B9A42F9D3FFF745FB00F00DF8704761
:100BB800A80D000800000020540400205404002060
:100BC80088040020FEE7000000B52D4C83B02046C5
:100BD800FFF7DAFC63682B4AA2FB03235B09013B9E
:100BE800B3F1807F0AD24FF0E02227495361F02009
:100BF80081F82300072300219161136105232361F4
:100C08002569002DFCD101210846FFF773FD29460F
:100C18004FF48000FFF774FC01210420FFF76AFD00
:100C28001A4B1B484FF400726946CDE90023FFF7C1
:100C38000DFF28464FF04051FFF76CFCFFF7CAFA4A
:100C4800144D4FF400712846FFF778FF4FF4806188
:100C58002846FFF771FF322323612369002BFCD15B
:100C68004FF400712846FFF767FF4FF4806128466C
:100C7800FFF764FF322323612369002BFCD1E0E7EF
:100C8800700400201F85EB5100ED00E00203000115
:100C98000008024000140240024B13B1024800F061
:100CA80005B8704700000000C10C00080023014689
:100CB8001A46184600F01AB838B5084B084D5B1BA1
:100CC8009C1007D0043B1D44013C55F80439984753
:100CD800002CF9D1BDE8384000F054B8A80D000840
:100CE800A40D0008704700BF704700BF2DE9F0470A
:100CF800DFF880A00646DAF8000098460F469146CD
:100D0800FFF7F0FF1A4B1B68D3F8484124B3656816
:100D18001F2D26DC5EB96B1C0235DAF80000636013
:100D280044F82570FFF7E0FF0020BDE8F08704EBEA
:100D380085010123C1F88890D4F88821AB401A4373
:100D4800022EC4F88821C1F80881E4D1D4F88C2196
:100D58001343C4F88C31DEE703F5A674C3F84841A1
:100D6800D5E7DAF80000FFF7BFFF4FF0FF30DCE708
:100D7800980D000850040020F8B500BFF8BC08BC66
:100D88009E467047F8B500BFF8BC08BC9E46704741
:040D9800280000200F
:080D9C00A10C0008AD010008E4
:040DA40089010008B9
:100DA8000000000000000000010203040607080913
:100DB800007A030A00000000010203040102030490
:100DC80006070809000000000000000014030020C6
:100DD8007C030020E4030020000000000000000065
:100DE80000000000000000000000000000000000FB
:100DF80000000000000000000000000000000000EB
:100E080000000000000000000000000000000000DA
:100E180000000000000000000000000000000000CA
:100E280000000000000000000000000000000000BA
:100E380000000000000000000000000000000000AA
:100E4800000000000000000000000000000000009A
:100E5800000000000000000000000000000000008A
:100E6800000000000000000000000000000000007A
:100E780001000000000000000E33CDAB34126DE617
:100E8800ECDE05000B000000000000000000000080
:100E9800000000000000000000000000000000004A
:100EA800000000000000000000000000000000003A
:100EB800000000000000000000000000000000002A
:100EC800000000000000000000000000000000001A
:0411F800840400204B
:0400000508000B895B
:00000001FF
